{
  "_format": "hh3-artifact-1",
  "contractName": "SecurityLogs",
  "sourceName": "contracts/SecurityLogs.sol",
  "abi": [
    {
      "anonymous": false,
      "inputs": [
        {
          "indexed": true,
          "internalType": "address",
          "name": "user",
          "type": "address"
        },
        {
          "indexed": false,
          "internalType": "string",
          "name": "actionType",
          "type": "string"
        },
        {
          "indexed": false,
          "internalType": "uint256",
          "name": "timestamp",
          "type": "uint256"
        },
        {
          "indexed": false,
          "internalType": "bytes32",
          "name": "logHash",
          "type": "bytes32"
        },
        {
          "indexed": false,
          "internalType": "bool",
          "name": "isSuspicious",
          "type": "bool"
        }
      ],
      "name": "LogAdded",
      "type": "event"
    },
    {
      "inputs": [
        {
          "internalType": "string",
          "name": "actionType",
          "type": "string"
        },
        {
          "internalType": "string",
          "name": "details",
          "type": "string"
        },
        {
          "internalType": "bytes32",
          "name": "logHash",
          "type": "bytes32"
        }
      ],
      "name": "addLog",
      "outputs": [],
      "stateMutability": "nonpayable",
      "type": "function"
    },
    {
      "inputs": [],
      "name": "getAllLogs",
      "outputs": [
        {
          "components": [
            {
              "internalType": "address",
              "name": "user",
              "type": "address"
            },
            {
              "internalType": "string",
              "name": "actionType",
              "type": "string"
            },
            {
              "internalType": "string",
              "name": "details",
              "type": "string"
            },
            {
              "internalType": "uint256",
              "name": "timestamp",
              "type": "uint256"
            },
            {
              "internalType": "bytes32",
              "name": "logHash",
              "type": "bytes32"
            },
            {
              "internalType": "bool",
              "name": "isSuspicious",
              "type": "bool"
            }
          ],
          "internalType": "struct SecurityLogs.Log[]",
          "name": "",
          "type": "tuple[]"
        }
      ],
      "stateMutability": "view",
      "type": "function"
    },
    {
      "inputs": [],
      "name": "getLogsCount",
      "outputs": [
        {
          "internalType": "uint256",
          "name": "",
          "type": "uint256"
        }
      ],
      "stateMutability": "view",
      "type": "function"
    },
    {
      "inputs": [
        {
          "internalType": "address",
          "name": "user",
          "type": "address"
        }
      ],
      "name": "getUserLogs",
      "outputs": [
        {
          "components": [
            {
              "internalType": "address",
              "name": "user",
              "type": "address"
            },
            {
              "internalType": "string",
              "name": "actionType",
              "type": "string"
            },
            {
              "internalType": "string",
              "name": "details",
              "type": "string"
            },
            {
              "internalType": "uint256",
              "name": "timestamp",
              "type": "uint256"
            },
            {
              "internalType": "bytes32",
              "name": "logHash",
              "type": "bytes32"
            },
            {
              "internalType": "bool",
              "name": "isSuspicious",
              "type": "bool"
            }
          ],
          "internalType": "struct SecurityLogs.Log[]",
          "name": "",
          "type": "tuple[]"
        }
      ],
      "stateMutability": "view",
      "type": "function"
    },
    {
      "inputs": [
        {
          "internalType": "address",
          "name": "",
          "type": "address"
        }
      ],
      "name": "lastLoginTime",
      "outputs": [
        {
          "internalType": "uint256",
          "name": "",
          "type": "uint256"
        }
      ],
      "stateMutability": "view",
      "type": "function"
    },
    {
      "inputs": [
        {
          "internalType": "address",
          "name": "",
          "type": "address"
        }
      ],
      "name": "loginCount",
      "outputs": [
        {
          "internalType": "uint256",
          "name": "",
          "type": "uint256"
        }
      ],
      "stateMutability": "view",
      "type": "function"
    },
    {
      "inputs": [
        {
          "internalType": "uint256",
          "name": "",
          "type": "uint256"
        }
      ],
      "name": "logs",
      "outputs": [
        {
          "internalType": "address",
          "name": "user",
          "type": "address"
        },
        {
          "internalType": "string",
          "name": "actionType",
          "type": "string"
        },
        {
          "internalType": "string",
          "name": "details",
          "type": "string"
        },
        {
          "internalType": "uint256",
          "name": "timestamp",
          "type": "uint256"
        },
        {
          "internalType": "bytes32",
          "name": "logHash",
          "type": "bytes32"
        },
        {
          "internalType": "bool",
          "name": "isSuspicious",
          "type": "bool"
        }
      ],
      "stateMutability": "view",
      "type": "function"
    },
    {
      "inputs": [
        {
          "internalType": "address",
          "name": "",
          "type": "address"
        },
        {
          "internalType": "uint256",
          "name": "",
          "type": "uint256"
        }
      ],
      "name": "userLogs",
      "outputs": [
        {
          "internalType": "uint256",
          "name": "",
          "type": "uint256"
        }
      ],
      "stateMutability": "view",
      "type": "function"
    }
  ],
  "bytecode": "0x6080604052348015600e575f5ffd5b5061170e8061001c5f395ff3fe608060405234801561000f575f5ffd5b5060043610610086575f3560e01c8063b4bcca0311610059578063b4bcca0314610136578063cc9e300f14610166578063e581329b14610184578063e79899bd146101a257610086565b80630f73d2121461008a57806357533f01146100a65780635de0f6f6146100d65780636fe3137a14610106575b5f5ffd5b6100a4600480360381019061009f9190610e2c565b6101d7565b005b6100c060048036038101906100bb9190610f41565b610577565b6040516100cd9190610f8e565b60405180910390f35b6100f060048036038101906100eb9190610fa7565b6105a2565b6040516100fd91906111c1565b60405180910390f35b610120600480360381019061011b9190610fa7565b6108b3565b60405161012d9190610f8e565b60405180910390f35b610150600480360381019061014b9190610fa7565b6108c8565b60405161015d9190610f8e565b60405180910390f35b61016e6108dd565b60405161017b9190610f8e565b60405180910390f35b61018c6108e8565b60405161019991906111c1565b60405180910390f35b6101bc60048036038101906101b791906111e1565b610ae5565b6040516101ce96959493929190611281565b60405180910390f35b5f5f90506040518060400160405280600581526020017f4c4f47494e0000000000000000000000000000000000000000000000000000008152508051906020012084805190602001200361039d57601e60025f3373ffffffffffffffffffffffffffffffffffffffff1673ffffffffffffffffffffffffffffffffffffffff1681526020019081526020015f205442610270919061131b565b10156102cd5760035f3373ffffffffffffffffffffffffffffffffffffffff1673ffffffffffffffffffffffffffffffffffffffff1681526020019081526020015f205f8154809291906102c39061134e565b9190505550610311565b600160035f3373ffffffffffffffffffffffffffffffffffffffff1673ffffffffffffffffffffffffffffffffffffffff1681526020019081526020015f20819055505b4260025f3373ffffffffffffffffffffffffffffffffffffffff1673ffffffffffffffffffffffffffffffffffffffff1681526020019081526020015f20819055506003805f3373ffffffffffffffffffffffffffffffffffffffff1673ffffffffffffffffffffffffffffffffffffffff1681526020019081526020015f20541061039c57600190505b5b5f6040518060c001604052803373ffffffffffffffffffffffffffffffffffffffff16815260200186815260200185815260200142815260200184815260200183151581525090505f5f8054905090505f82908060018154018082558091505060019003905f5260205f2090600602015f909190919091505f820151815f015f6101000a81548173ffffffffffffffffffffffffffffffffffffffff021916908373ffffffffffffffffffffffffffffffffffffffff160217905550602082015181600101908161046e9190611592565b5060408201518160020190816104849190611592565b50606082015181600301556080820151816004015560a0820151816005015f6101000a81548160ff021916908315150217905550505060015f3373ffffffffffffffffffffffffffffffffffffffff1673ffffffffffffffffffffffffffffffffffffffff1681526020019081526020015f2081908060018154018082558091505060019003905f5260205f20015f90919091909150553373ffffffffffffffffffffffffffffffffffffffff167f7383c928d2fac801198f6e31065cfd5e9152852fd0e0d0c23caf38adc8c424f5874287876040516105679493929190611661565b60405180910390a2505050505050565b6001602052815f5260405f208181548110610590575f80fd5b905f5260205f20015f91509150505481565b60605f60015f8473ffffffffffffffffffffffffffffffffffffffff1673ffffffffffffffffffffffffffffffffffffffff1681526020019081526020015f2080548060200260200160405190810160405280929190818152602001828054801561062a57602002820191905f5260205f20905b815481526020019060010190808311610616575b505050505090505f815167ffffffffffffffff81111561064d5761064c610cd5565b5b60405190808252806020026020018201604052801561068657816020015b610673610c62565b81526020019060019003908161066b5790505b5090505f5f90505b82518110156108a8575f8382815181106106ab576106aa6116ab565b5b6020026020010151815481106106c4576106c36116ab565b5b905f5260205f2090600602016040518060c00160405290815f82015f9054906101000a900473ffffffffffffffffffffffffffffffffffffffff1673ffffffffffffffffffffffffffffffffffffffff1673ffffffffffffffffffffffffffffffffffffffff16815260200160018201805461073f906113c2565b80601f016020809104026020016040519081016040528092919081815260200182805461076b906113c2565b80156107b65780601f1061078d576101008083540402835291602001916107b6565b820191905f5260205f20905b81548152906001019060200180831161079957829003601f168201915b505050505081526020016002820180546107cf906113c2565b80601f01602080910402602001604051908101604052809291908181526020018280546107fb906113c2565b80156108465780601f1061081d57610100808354040283529160200191610846565b820191905f5260205f20905b81548152906001019060200180831161082957829003601f168201915b505050505081526020016003820154815260200160048201548152602001600582015f9054906101000a900460ff1615151515815250508282815181106108905761088f6116ab565b5b6020026020010181905250808060010191505061068e565b508092505050919050565b6003602052805f5260405f205f915090505481565b6002602052805f5260405f205f915090505481565b5f5f80549050905090565b60605f805480602002602001604051908101604052809291908181526020015f905b82821015610adc578382905f5260205f2090600602016040518060c00160405290815f82015f9054906101000a900473ffffffffffffffffffffffffffffffffffffffff1673ffffffffffffffffffffffffffffffffffffffff1673ffffffffffffffffffffffffffffffffffffffff16815260200160018201805461098f906113c2565b80601f01602080910402602001604051908101604052809291908181526020018280546109bb906113c2565b8015610a065780601f106109dd57610100808354040283529160200191610a06565b820191905f5260205f20905b8154815290600101906020018083116109e957829003601f168201915b50505050508152602001600282018054610a1f906113c2565b80601f0160208091040260200160405190810160405280929190818152602001828054610a4b906113c2565b8015610a965780601f10610a6d57610100808354040283529160200191610a96565b820191905f5260205f20905b815481529060010190602001808311610a7957829003601f168201915b505050505081526020016003820154815260200160048201548152602001600582015f9054906101000a900460ff1615151515815250508152602001906001019061090a565b50505050905090565b5f8181548110610af3575f80fd5b905f5260205f2090600602015f91509050805f015f9054906101000a900473ffffffffffffffffffffffffffffffffffffffff1690806001018054610b37906113c2565b80601f0160208091040260200160405190810160405280929190818152602001828054610b63906113c2565b8015610bae5780601f10610b8557610100808354040283529160200191610bae565b820191905f5260205f20905b815481529060010190602001808311610b9157829003601f168201915b505050505090806002018054610bc3906113c2565b80601f0160208091040260200160405190810160405280929190818152602001828054610bef906113c2565b8015610c3a5780601f10610c1157610100808354040283529160200191610c3a565b820191905f5260205f20905b815481529060010190602001808311610c1d57829003601f168201915b505050505090806003015490806004015490806005015f9054906101000a900460ff16905086565b6040518060c001604052805f73ffffffffffffffffffffffffffffffffffffffff16815260200160608152602001606081526020015f81526020015f81526020015f151581525090565b5f604051905090565b5f5ffd5b5f5ffd5b5f5ffd5b5f5ffd5b5f601f19601f8301169050919050565b7f4e487b71000000000000000000000000000000000000000000000000000000005f52604160045260245ffd5b610d0b82610cc5565b810181811067ffffffffffffffff82111715610d2a57610d29610cd5565b5b80604052505050565b5f610d3c610cac565b9050610d488282610d02565b919050565b5f67ffffffffffffffff821115610d6757610d66610cd5565b5b610d7082610cc5565b9050602081019050919050565b828183375f83830152505050565b5f610d9d610d9884610d4d565b610d33565b905082815260208101848484011115610db957610db8610cc1565b5b610dc4848285610d7d565b509392505050565b5f82601f830112610de057610ddf610cbd565b5b8135610df0848260208601610d8b565b91505092915050565b5f819050919050565b610e0b81610df9565b8114610e15575f5ffd5b50565b5f81359050610e2681610e02565b92915050565b5f5f5f60608486031215610e4357610e42610cb5565b5b5f84013567ffffffffffffffff811115610e6057610e5f610cb9565b5b610e6c86828701610dcc565b935050602084013567ffffffffffffffff811115610e8d57610e8c610cb9565b5b610e9986828701610dcc565b9250506040610eaa86828701610e18565b9150509250925092565b5f73ffffffffffffffffffffffffffffffffffffffff82169050919050565b5f610edd82610eb4565b9050919050565b610eed81610ed3565b8114610ef7575f5ffd5b50565b5f81359050610f0881610ee4565b92915050565b5f819050919050565b610f2081610f0e565b8114610f2a575f5ffd5b50565b5f81359050610f3b81610f17565b92915050565b5f5f60408385031215610f5757610f56610cb5565b5b5f610f6485828601610efa565b9250506020610f7585828601610f2d565b9150509250929050565b610f8881610f0e565b82525050565b5f602082019050610fa15f830184610f7f565b92915050565b5f60208284031215610fbc57610fbb610cb5565b5b5f610fc984828501610efa565b91505092915050565b5f81519050919050565b5f82825260208201905092915050565b5f819050602082019050919050565b61100481610ed3565b82525050565b5f81519050919050565b5f82825260208201905092915050565b8281835e5f83830152505050565b5f61103c8261100a565b6110468185611014565b9350611056818560208601611024565b61105f81610cc5565b840191505092915050565b61107381610f0e565b82525050565b61108281610df9565b82525050565b5f8115159050919050565b61109c81611088565b82525050565b5f60c083015f8301516110b75f860182610ffb565b50602083015184820360208601526110cf8282611032565b915050604083015184820360408601526110e98282611032565b91505060608301516110fe606086018261106a565b5060808301516111116080860182611079565b5060a083015161112460a0860182611093565b508091505092915050565b5f61113a83836110a2565b905092915050565b5f602082019050919050565b5f61115882610fd2565b6111628185610fdc565b93508360208202850161117485610fec565b805f5b858110156111af5784840389528151611190858261112f565b945061119b83611142565b925060208a01995050600181019050611177565b50829750879550505050505092915050565b5f6020820190508181035f8301526111d9818461114e565b905092915050565b5f602082840312156111f6576111f5610cb5565b5b5f61120384828501610f2d565b91505092915050565b61121581610ed3565b82525050565b5f82825260208201905092915050565b5f6112358261100a565b61123f818561121b565b935061124f818560208601611024565b61125881610cc5565b840191505092915050565b61126c81610df9565b82525050565b61127b81611088565b82525050565b5f60c0820190506112945f83018961120c565b81810360208301526112a6818861122b565b905081810360408301526112ba818761122b565b90506112c96060830186610f7f565b6112d66080830185611263565b6112e360a0830184611272565b979650505050505050565b7f4e487b71000000000000000000000000000000000000000000000000000000005f52601160045260245ffd5b5f61132582610f0e565b915061133083610f0e565b9250828203905081811115611348576113476112ee565b5b92915050565b5f61135882610f0e565b91507fffffffffffffffffffffffffffffffffffffffffffffffffffffffffffffffff820361138a576113896112ee565b5b600182019050919050565b7f4e487b71000000000000000000000000000000000000000000000000000000005f52602260045260245ffd5b5f60028204905060018216806113d957607f821691505b6020821081036113ec576113eb611395565b5b50919050565b5f819050815f5260205f209050919050565b5f6020601f8301049050919050565b5f82821b905092915050565b5f6008830261144e7fffffffffffffffffffffffffffffffffffffffffffffffffffffffffffffffff82611413565b6114588683611413565b95508019841693508086168417925050509392505050565b5f819050919050565b5f61149361148e61148984610f0e565b611470565b610f0e565b9050919050565b5f819050919050565b6114ac83611479565b6114c06114b88261149a565b84845461141f565b825550505050565b5f5f905090565b6114d76114c8565b6114e28184846114a3565b505050565b5b81811015611505576114fa5f826114cf565b6001810190506114e8565b5050565b601f82111561154a5761151b816113f2565b61152484611404565b81016020851015611533578190505b61154761153f85611404565b8301826114e7565b50505b505050565b5f82821c905092915050565b5f61156a5f198460080261154f565b1980831691505092915050565b5f611582838361155b565b9150826002028217905092915050565b61159b8261100a565b67ffffffffffffffff8111156115b4576115b3610cd5565b5b6115be82546113c2565b6115c9828285611509565b5f60209050601f8311600181146115fa575f84156115e8578287015190505b6115f28582611577565b865550611659565b601f198416611608866113f2565b5f5b8281101561162f5784890151825560018201915060208501945060208101905061160a565b8683101561164c5784890151611648601f89168261155b565b8355505b6001600288020188555050505b505050505050565b5f6080820190508181035f830152611679818761122b565b90506116886020830186610f7f565b6116956040830185611263565b6116a26060830184611272565b95945050505050565b7f4e487b71000000000000000000000000000000000000000000000000000000005f52603260045260245ffdfea264697066735822122063e337291bb43f4f56a9f5b0243fcd78bf9594976d2523c92af842970ffe099764736f6c634300081c0033",
  "linkReferences": {},
  "deployedLinkReferences": {},
  "immutableReferences": {},
  "inputSourceName": "project/contracts/SecurityLogs.sol",
  "buildInfoId": "solc-0_8_28-db48024f8c7ac6db723d907c4b22cfb4d432d970"
}